:100000000C94340018950000189500001895000015
:10001000189500001895000018950000189500002C
:10002000189500000C9449021895000018950000DE
:10003000189500000C94E301189500001895000035
:100040000C943601189500000C94A400189500003B
:1000500018950000189500001895000018950000EC
:1000600018950000189500008FEF8DBFC0EAE8EFEB
:100070004E2E88E08EBFD8E0F7E05F2EA89584B7BB
:10008000082E882784BF88E1992780936000909389
:100090006000EEEFF7E0A0E0B1E088278D933197A4
:1000A000E9F78FE28093C40080E08093C50088E187
:1000B0008093C10066243A9A239A209A219A529AF0
:1000C000539A549A559A569A579A85E085BD80E07E
:1000D00084BD70916E00716070936E0085E085BD87
:1000E00080E08093800085E08093810070916F00B4
:1000F000716070936F0085E08093810084E080934D
:10010000B10080E08093B0007091700071607093D6
:10011000700084E08093B100A6E0B1E0E4E4F7E28F
:100120000E9408120E947210AFE0B1E0EEE4F7E224
:100130000E9408120E947A107091C100706870933A
:10014000C10078940C943A0F0F921F922F923F9215
:100150004F925F927F92AF92BF920F931F932F9314
:100160003F934F935F936F937F938F939F93AF933F
:10017000BF93CF93DF93EF93FF939FB79F93A2E239
:10018000B6E08091C6008C938AE2482F0091220647
:10019000041711F00C94D70070918702706270936D
:1001A0008702A9E5B5E088278C930C9419010D30DE
:1001B00011F00C940101A7E8B2E08C9185FB16F0D8
:1001C0000C94FF00709187027F7D7093870280E01E
:1001D000A9E5B5E00E94E70F8D9388278C93E9E5A8
:1001E000F5E0A3E2B6E00E943013709187027061DF
:1001F0007093870270916E00716070936E000C9422
:1002000019010F3118F011F00C9408010C94190128
:10021000A7E8B2E08C9185FB16F00C941901A2E2DC
:10022000B6E08C91A9E5B5E00E94E70F8D93882791
:100230008C939F919FBFFF91EF91DF91CF91BF91E1
:10024000AF919F918F917F916F915F914F913F916E
:100250002F911F910F91BF90AF907F905F904F9023
:100260003F902F901F900F90189508950F921F9216
:100270002F923F924F925F927F92AF92BF920F93D5
:100280001F932F933F934F935F936F937F938F931E
:100290009F93AF93BF93CF93DF93EF93FF939FB75A
:1002A0009F9378EB76BDAFE7B2E08C918F5F8C9334
:1002B000AFE7B2E00C9148E00E944F138C9300919D
:1002C0007F02003011F00C949601A0E8B2E00C918E
:1002D00040E20E944F138C93E0E3FEE1A5E8B2E018
:1002E0008C919927A1E8B2E00E94261280918002A9
:1002F000A1E8B2E00E944B120E9441120C90082229
:10030000689409F4E894AEE1B1E08C9180F98C93A3
:10031000AEE1B1E08C9180FBA8E2B0E08C9182F973
:100320008C93A0E8B2E08C918F5F8C93A7E8B2E049
:100330008C9187FB16F00C94C701A8E8B2E00E94EC
:10034000A00FA8E8B2E00D911C9140E85CE00E948B
:10035000CD0FA8E8B2E00D931C93A8E8B2E00D9190
:100360001C91003050E0150711F00C94C701E8E52E
:10037000F7E20E94F60F0E94FD0F709187027F77CF
:1003800070938702709187027064709387029F91C7
:100390009FBFFF91EF91DF91CF91BF91AF919F915F
:1003A0008F917F916F915F914F913F912F911F910D
:1003B0000F91BF90AF907F905F904F903F902F90A4
:1003C0001F900F9018950F921F922F923F924F926D
:1003D0005F927F92AF92BF920F931F932F933F93A1
:1003E0004F935F936F937F938F939F93AF93BF933D
:1003F000CF93DF93EF93FF939FB79F9380EE93EE9E
:10040000909385008093840070911E0170687093B2
:100410001E010E946710E6E0F1E0FA93EA93EFE034
:10042000F1E00E94CA11AAE8B2E00D931D932D934A
:100430003D93AAE8B2E00E94930FEAE8F2E0AFE051
:10044000B1E00E94BA110E947A10EAE8F2E0A6E058
:10045000B1E00E94C2110E9472109F919FBFFF9154
:10046000EF91DF91CF91BF91AF919F918F917F914C
:100470006F915F914F913F912F911F910F91BF907D
:10048000AF907F905F904F903F902F901F900F9074
:1004900018950F921F922F923F924F925F927F92E8
:1004A000AF92BF920F931F932F933F934F935F93FE
:1004B0006F937F938F939F93AF93BF93CF93DF936C
:1004C000EF93FF939FB79F9378E87093B2005B9A86
:1004D0005D9A5F9AACE3B2E08C918F5F8C93ECE312
:1004E000FBE1ACE3B2E08C919927AAE3B2E00E9471
:1004F0001E12209A219A2998AAE3B2E0129690E15E
:100500008E91983018F4392F992702C038E098500E
:10051000881F289808F4289A00000000299A0000F3
:1005200000002998000000003A9591F7992341F7BF
:100530005A9A5A985B98ACE3B2E0AD90BB24ACE316
:10054000B2E0AA0DBB1D8C9180933902209A219AAA
:100550002998A9E3B2E098E08D91983018F4392FEA
:10056000992702C038E098508795289808F4289A6F
:1005700000000000299A00000000299800000000F7
:100580003A9591F7992341F7ACE3B2E0AD90BB24E3
:10059000ACE5B2E0AA0DBB1D8C9180933902209A84
:1005A000219A2998A9E3B2E098E08D91983018F447
:1005B000392F992702C038E098508795289808F479
:1005C000289A00000000299A0000000029980000E5
:1005D00000003A9591F7992341F75E9A5E98ACE353
:1005E000B2E0AD90BB24ACE4B2E0AA0DBB1D8C918F
:1005F00080933902209A219A2998A9E3B2E098E0E1
:100600008D91983018F4392F992702C038E098500E
:100610008795289808F4289A00000000299A00007D
:1006200000002998000000003A9591F7992341F7BE
:10063000ACE3B2E0AD90BB24ACE6B2E0AA0DBB1DCA
:100640008C9180933902209A219A2998A9E3B2E0EB
:1006500098E08D91983018F4392F992702C038E02E
:1006600098508795289808F4289A00000000299A45
:10067000000000002998000000003A9591F79923A6
:1006800041F75C9A5C985D985F98ACE3B2E00C919E
:1006900040E10E944F138C939F919FBFFF91EF9178
:1006A000DF91CF91BF91AF919F918F917F916F918A
:1006B0005F914F913F912F911F910F91BF90AF90FC
:1006C0007F905F904F903F902F901F900F901895C4
:1006D0000895089508954298E2E6F7E20E94F60F21
:1006E0000E94FD0FA0EEB7E0EAE8F7E20E940812D0
:1006F0000E94EE0F0E94FD0FA0EEB7E0EEE9F7E2D8
:100700000E9408120E94EE0F0E94FD0FA0EEB7E0BB
:10071000E6EAF7E20E9408120E94EE0F0E94FD0F27
:1007200081E08093850270911E017F7B70931E0192
:1007300082E080933802709187027F7E70938702F7
:1007400070911E017D7F70931E010895A3E0B2E0B9
:100750000E945F13A8E1B1E08C930091180105306D
:1007600018F011F00C94B6030C94B90385E0809353
:10077000180181E080931C0100911C01003218F0E7
:1007800011F00C94DF0380E0ACE1B1E0AD90BB244C
:10079000ACE3B2E0AA0DBB1D8C9380E0ACE1B1E00C
:1007A000AD90BB24ACE5B2E0AA0DBB1D8C93ACE1CF
:1007B000B1E08C918F5F8C9310F40C94BC0300918A
:1007C000180141E0041BA9E1B1E00C93EEE5FBE167
:1007D000A9E1B1E08C919927ADE7B2E00E94231224
:1007E00081E080931B014091180100911B010417C7
:1007F00018F011F00C94770580911B01E3E0F2E012
:1008000001E00A93A2EFB1E00E943513A2EFB1E03C
:10081000E0EBF7E20E94651311F40C94C204A2EF1E
:10082000B1E00E94CE12A9E1B1E00C930091190150
:1008300045E0049FAEE7B2E00C9281E080931C019A
:1008400000911C01053018F011F00C948104ADE703
:10085000B2E08C918F5F8C93ECEEFBE1AEE7B2E0FF
:100860008C919927AAE1B1E00E942312AEE7B2E091
:100870008C918F5F8C9300913802003011F00C94B2
:100880004C0480911A01ADE7B2E0AD90BB24ACE31B
:10089000B2E0AA0DBB1D8C9300913802013011F01B
:1008A0000C945D0480911A01ADE7B2E0AD90BB24D9
:1008B000ACE5B2E0AA0DBB1D8C930091380202306A
:1008C00011F00C94790480911A01ADE7B2E0AD907B
:1008D000BB24ACE3B2E0AA0DBB1D8C9380911A013E
:1008E000ADE7B2E0AD90BB24ACE5B2E0AA0DBB1D14
:1008F0008C93ACE1B1E08C918F5F8C9310F40C94ED
:100900002004ADE7B2E08C918F5F8C9300913802A8
:10091000003011F00C94960480E0ADE7B2E0AD90A9
:10092000BB24ACE3B2E0AA0DBB1D8C93009138024E
:10093000013011F00C94A60480E0ADE7B2E0AD9078
:10094000BB24ACE5B2E0AA0DBB1D8C93009138022C
:10095000023011F00C94C00480E0ADE7B2E0AD903D
:10096000BB24ACE3B2E0AA0DBB1D8C9380E0ADE7E5
:10097000B2E0AD90BB24ACE5B2E0AA0DBB1D8C93F8
:100980000C946F05ADE7B2E08C918F5F8C93009172
:100990003802003011F00C94F5048CECADE7B2E0B5
:1009A000AD90BB24ACE3B2E0AA0DBB1D8C93ADE7C8
:1009B000B2E08C918F5F8C938CECADE7B2E0AD90A0
:1009C000BB24ACE3B2E0AA0DBB1D8C93ADE7B2E053
:1009D0008C918F5F8C9380E0ADE7B2E0AD90BB244B
:1009E000ACE3B2E0AA0DBB1D8C930091380201303C
:1009F00011F00C9423058CECADE7B2E0AD90BB2474
:100A0000ACE5B2E0AA0DBB1D8C93ADE7B2E08C91D2
:100A10008F5F8C938CECADE7B2E0AD90BB24ACE57E
:100A2000B2E0AA0DBB1D8C93ADE7B2E08C918F5F55
:100A30008C9380E0ADE7B2E0AD90BB24ACE5B2E0D2
:100A4000AA0DBB1D8C9300913802023011F00C945A
:100A50006F058CECADE7B2E0AD90BB24ACE3B2E047
:100A6000AA0DBB1D8C938CECADE7B2E0AD90BB241E
:100A7000ACE5B2E0AA0DBB1D8C93ADE7B2E08C9162
:100A80008F5F8C938CECADE7B2E0AD90BB24ACE310
:100A9000B2E0AA0DBB1D8C938CECADE7B2E0AD903B
:100AA000BB24ACE5B2E0AA0DBB1D8C93ADE7B2E070
:100AB0008C918F5F8C9380E0ADE7B2E0AD90BB246A
:100AC000ACE3B2E0AA0DBB1D8C9380E0ADE7B2E0D1
:100AD000AD90BB24ACE5B2E0AA0DBB1D8C93ABE19D
:100AE000B1E08C918F5F8C9310F40C94F303089514
:100AF00081E080931D0181E080931C0100911C0125
:100B0000003218F011F00C94A10580E0ACE1B1E0E6
:100B1000AD90BB24ACE3B2E0AA0DBB1D8C9380E08A
:100B2000ACE1B1E0AD90BB24ACE5B2E0AA0DBB1DD9
:100B30008C93ACE1B1E08C918F5F8C9310F40C94AA
:100B40007E0581E080931C0100911C01003218F0A9
:100B500011F00C94C10600911F01003011F00C94AB
:100B6000BB05E4E6FBE1ACE1B1E08C919927A8E19B
:100B7000B1E00E94231200911F01013011F00C948A
:100B8000CB05E6E8FBE1ACE1B1E08C919927A8E167
:100B9000B1E00E94231200911F01023011F00C9469
:100BA000DB05E8EAFBE1ACE1B1E08C919927A8E133
:100BB000B1E00E94231200911F01033011F00C9448
:100BC000EB05EAECFBE1ACE1B1E08C919927A8E1FF
:100BD000B1E00E94231200911F01043011F00C9427
:100BE000FB05E4E2FCE1ACE1B1E08C919927A8E1DE
:100BF000B1E00E94231200911F01053011F00C9406
:100C00000B06E6E4FCE1ACE1B1E08C919927A8E1A8
:100C1000B1E00E94231200911F01063011F00C94E4
:100C20001B06E8E6FCE1ACE1B1E08C919927A8E174
:100C3000B1E00E94231200911F01073011F00C94C3
:100C40002B06EAE8FCE1ACE1B1E08C919927A8E140
:100C5000B1E00E94231200911F01083011F00C94A2
:100C60003B06ECEAFCE1ACE1B1E08C919927A8E10C
:100C7000B1E00E94231200911F01093011F00C9481
:100C80004B06E0EFFCE1ACE1B1E08C919927A8E1E3
:100C9000B1E00E94231200911F010A3011F00C9460
:100CA0005B06EEECFCE1ACE1B1E08C919927A8E1A8
:100CB000B1E00E94231200911F010B3011F00C943F
:100CC0006B06E2E1FDE1ACE1B1E08C919927A8E18E
:100CD000B1E00E94231200911F010C3011F00C941E
:100CE0007B06E4E3FDE1ACE1B1E08C919927A8E15A
:100CF000B1E00E94231200913802003011F00C94F0
:100D00008C0680911801ACE1B1E0AD90BB24ACE35E
:100D1000B2E0AA0DBB1D8C9300913802013011F096
:100D20000C949D0680911801ACE1B1E0AD90BB241C
:100D3000ACE5B2E0AA0DBB1D8C93009138020230E5
:100D400011F00C94B90680911801ACE1B1E0AD90BE
:100D5000BB24ACE3B2E0AA0DBB1D8C9380911801BB
:100D6000ACE1B1E0AD90BB24ACE5B2E0AA0DBB1D97
:100D70008C93ACE1B1E08C918F5F8C9310F40C9468
:100D8000A40581E080931D01089581E080931D01F9
:100D9000A3E0B2E00E945F13A8E1B1E08C93009160
:100DA0001801053018F011F00C94D8060C94DB06ED
:100DB00085E08093180181E080931C0100911C0163
:100DC000003218F011F00C94010780E0ACE1B1E0C2
:100DD000AD90BB24ACE3B2E0AA0DBB1D8C9380E0C8
:100DE000ACE1B1E0AD90BB24ACE5B2E0AA0DBB1D17
:100DF0008C93ACE1B1E08C918F5F8C9310F40C94E8
:100E0000DE060091180141E0041BA9E1B1E00C935A
:100E1000EEE5FBE1A9E1B1E08C919927ADE7B2E005
:100E20000E94231281E080931B01409118010091E0
:100E30001B01041718F011F00C94990880911B0104
:100E4000E3E0F2E001E00A93A2EFB1E00E94351383
:100E5000A2EFB1E0E0EBF7E20E94651311F40C940D
:100E6000E407A2EFB1E00E94CE12A9E1B1E00C9339
:100E70000091190145E0049FAEE7B2E00C9281E0D9
:100E800080931C0100911C01053018F011F00C94A6
:100E9000A307ADE7B2E08C918F5F8C93ECEEFBE1A2
:100EA000AEE7B2E08C919927AAE1B1E00E9423124B
:100EB000AEE7B2E08C918F5F8C93009138020030E6
:100EC00011F00C946E0780911A01ADE7B2E0AD907D
:100ED000BB24ACE3B2E0AA0DBB1D8C930091380299
:100EE000013011F00C947F0780911A01ADE7B2E058
:100EF000AD90BB24ACE5B2E0AA0DBB1D8C93009174
:100F00003802023011F00C949B0780911A01ADE772
:100F1000B2E0AD90BB24ACE3B2E0AA0DBB1D8C9354
:100F200080911A01ADE7B2E0AD90BB24ACE5B2E030
:100F3000AA0DBB1D8C93ACE1B1E08C918F5F8C93BB
:100F400010F40C944207ADE7B2E08C918F5F8C9364
:100F500000913802003011F00C94B80780E0ADE742
:100F6000B2E0AD90BB24ACE3B2E0AA0DBB1D8C9304
:100F700000913802013011F00C94C80780E0ADE711
:100F8000B2E0AD90BB24ACE5B2E0AA0DBB1D8C93E2
:100F900000913802023011F00C94E20780E0ADE7D6
:100FA000B2E0AD90BB24ACE3B2E0AA0DBB1D8C93C4
:100FB00080E0ADE7B2E0AD90BB24ACE5B2E0AA0DB5
:100FC000BB1D8C930C949108ADE7B2E08C918F5FC0
:100FD0008C9300913802003011F00C94170880ECCB
:100FE000ADE7B2E0AD90BB24ACE3B2E0AA0DBB1D0F
:100FF0008C93ADE7B2E08C918F5F8C9380ECADE782
:10100000B2E0AD90BB24ACE3B2E0AA0DBB1D8C9363
:10101000ADE7B2E08C918F5F8C9380E0ADE7B2E0FA
:10102000AD90BB24ACE3B2E0AA0DBB1D8C93009144
:101030003802013011F00C94450880ECADE7B2E0C5
:10104000AD90BB24ACE5B2E0AA0DBB1D8C93ADE71F
:10105000B2E08C918F5F8C9380ECADE7B2E0AD9005
:10106000BB24ACE5B2E0AA0DBB1D8C93ADE7B2E0AA
:101070008C918F5F8C9380E0ADE7B2E0AD90BB24A4
:10108000ACE5B2E0AA0DBB1D8C9300913802023092
:1010900011F00C94910880ECADE7B2E0AD90BB2468
:1010A000ACE3B2E0AA0DBB1D8C9380ECADE7B2E0DF
:1010B000AD90BB24ACE5B2E0AA0DBB1D8C93ADE7AF
:1010C000B2E08C918F5F8C9380ECADE7B2E0AD9095
:1010D000BB24ACE3B2E0AA0DBB1D8C9380ECADE762
:1010E000B2E0AD90BB24ACE5B2E0AA0DBB1D8C9381
:1010F000ADE7B2E08C918F5F8C9380E0ADE7B2E01A
:10110000AD90BB24ACE3B2E0AA0DBB1D8C9380E094
:10111000ADE7B2E0AD90BB24ACE5B2E0AA0DBB1DDB
:101120008C93ABE1B1E08C918F5F8C9310F40C94B5
:1011300015070895E2EBF7E20E94F60F0E94FD0FFB
:1011400081E080931C0100911C01003218F011F025
:101150000C94C60880E0ACE1B1E0AD90BB24ACE3F8
:10116000B2E0AA0DBB1D8C9380E0ACE1B1E0AD9084
:10117000BB24ACE5B2E0AA0DBB1D8C93ACE1B1E0A1
:101180008C918F5F8C9310F40C94A308A7E8B2E0C5
:101190008C9184FB16F00C94DE08709187027F7EA0
:1011A00070938702ECEBF7E20E94F60FA3E2B6E041
:1011B0000E94F00F0E94FD0F0E94CF09AEE1B1E046
:1011C0008C9187FB16F00C94C70970911E017F77F4
:1011D00070931E01ACE1B1E08C918F5F8C93E2ECD7
:1011E000F7E20E94F60FECE1F1E0A0EEB7E00E941A
:1011F00089120E94EE0F0E94FD0F81E080931B0177
:1012000000911B01003218F011F00C942B09009191
:101210003802013011F00C94190980E0ABE1B1E023
:10122000AD90BB24ACE5B2E0AA0DBB1D8C930C9431
:10123000230980E0ABE1B1E0AD90BB24ACE3B2E0C8
:10124000AA0DBB1D8C93ABE1B1E08C918F5F8C93A9
:1012500010F40C94000981E080931B0100911B01A4
:10126000003218F011F00C94610940911C010091BA
:101270001B01041711F00C94590900913802013038
:1012800011F00C944F098FEFABE1B1E0AD90BB24AE
:10129000ACE5B2E0AA0DBB1D8C930C9459098FEFFD
:1012A000ABE1B1E0AD90BB24ACE3B2E0AA0DBB1D55
:1012B0008C93ABE1B1E08C918F5F8C9310F40C9424
:1012C0002E0900911C01003218F011F00C946A09EB
:1012D0000C94C00900911C0148E00E944F13A8E142
:1012E000B1E08C93E8E1F1E0A0EEB7E00E94891252
:1012F0000E94EE0F0E94FD0F81E080931B01009180
:101300001B01003218F011F00C94C0090091380252
:10131000013011F00C94A309689480911801ABE19D
:10132000B1E0AD90BB24ACE5B2E0AA0DBB1D0E94BC
:101330004B120E9441120C9016F0092201C0082A9B
:101340000C920C94B809689480911801ABE1B1E05B
:10135000AD90BB24ACE3B2E0AA0DBB1D0E944B12C2
:101360000E9441120C9016F0092201C0082A0C922A
:10137000ABE1B1E08C918F5F8C9310F40C947F09FA
:10138000ACE1B1E00C9140E30E944F138C93AEE1CD
:10139000B1E08C9186FB16F40C94C6080895EAEC33
:1013A000F7E20E94F60FA3E2B6E00E94F00F0E945F
:1013B000FD0F81E0E3E2F6E006E00A93A3E0B2E08D
:1013C0000E943513E3E2F6E09CE204E132E2AFE88A
:1013D000B2E00E947B13AEE8B2E02C9300918E0243
:1013E000003018F011F00C94F7090C94270A81E0F2
:1013F0008093180140918E0200911801041718F093
:1014000011F00C94270AE8E1F1E0A0EEB7E00E94A9
:1014100089120E94EE0FE0EBF7E20E94F60FA8E1BE
:10142000B1E00D91112745E150E00E94DB11AAE7E0
:10143000B2E0A00FB11F0E94F00F0E94FD0FA8E1C3
:10144000B1E08C918F5F8C9310F40C94FA09A3E2B5
:10145000B6E088278C93AFE8B2E00E945F13082FB4
:10146000063011F00C94750DEFE8F2E0A1E2B1E066
:101470000E943013E1E2F1E0A1E2B1E00E943512F6
:101480008FEF8093F101A1E2B1E0ECECF7E20E9472
:10149000651311F00C94830A80E08093F101A8E2B7
:1014A000B1E0E4EDF7E20E940812A3E0B2E0EAE85E
:1014B000F7E20E940812E3E0F2E0A8E2B1E00E9445
:1014C000E70F0E943013A8E2B1E00E94E70FE8EEB8
:1014D000F7E20E940812A3E0B2E0E6EAF7E20E9417
:1014E0000812E3E0F2E0A8E2B1E00E94E70F0E94F8
:1014F0003013A8E2B1E00E94E70FE6EFF7E20E94A6
:1015000008120C94730DE8EFF7E20E94651311F0D6
:101510000C94BE0A00918E02023011F00C94B90AAC
:10152000A4EAB2E00E94CE12A8E1B1E00C930091CF
:101530001801013110F00C94B40A80E08093F1019D
:10154000A8E2B1E0E0E0F8E20E940812E8E1F1E090
:10155000A8E2B1E00E94E70F0E9489128091180171
:10156000809385020C94B70A85E08093F1010C9476
:10157000BC0A84E08093F1010C94730DE8E1F8E279
:101580000E94651311F00C94170B00918E0203302A
:1015900011F00C94120BA4EAB2E00E94CE12A8E162
:1015A000B1E00C9300911801013210F00C940D0B76
:1015B00080E08093F101A9EBB2E00E941613A9E14B
:1015C000B1E00C93A8E2B1E0E0E2F8E20E94081278
:1015D000E8E1F1E0A8E2B1E00E94E70F0E94891281
:1015E000A8E2B1E00E94E70FE6E3F8E20E940812E9
:1015F000E9E1F1E0A8E2B1E00E94E70F0E94FD12EC
:1016000080911901A8E1B1E0AD90BB24ACE3B2E058
:10161000AA0DBB1D8C930C94100B85E08093F101F7
:101620000C94150B84E08093F1010C94730DEAE3A4
:10163000F8E20E94651311F00C94700B00918E0279
:10164000033011F00C946B0BA4EAB2E00E94CE12AE
:10165000A8E1B1E00C9300911801013210F00C9454
:10166000660B80E08093F101A9EBB2E00E941613B3
:10167000A9E1B1E00C93A8E2B1E0E2E4F8E20E9453
:101680000812E8E1F1E0A8E2B1E00E94E70F0E9451
:101690008912A8E2B1E00E94E70FE6E3F8E20E94B7
:1016A0000812E9E1F1E0A8E2B1E00E94E70F0E9430
:1016B000FD1280911901A8E1B1E0AD90BB24ACE529
:1016C000B2E0AA0DBB1D8C930C94690B85E080934E
:1016D000F1010C946E0B84E08093F1010C94730D76
:1016E000E8E5F8E20E94651311F00C94870B80E0A6
:1016F0008093F101A8E2B1E0E0E6F8E20E9408126E
:1017000070911E01706170931E010C94730DEEE6D2
:10171000F8E20E94651311F00C94BF0B80E08093F7
:10172000F101A8E2B1E0E6E7F8E20E94081281E0E8
:1017300080931C0100911C01003218F011F00C94F0
:10174000BD0B80E0ACE1B1E0AD90BB24ACE3B2E016
:10175000AA0DBB1D8C9380E0ACE1B1E0AD90BB2441
:10176000ACE5B2E0AA0DBB1D8C93ACE1B1E08C916D
:101770008F5F8C9310F40C949A0B0C94730DE6E825
:10178000F8E20E94651311F00C94F30B00918E02A5
:10179000023011F00C94EE0BA4EAB2E00E94CE12DB
:1017A000A8E3B2E00C9300913802023010F00C94E0
:1017B000E90B80E08093F101A8E2B1E0EEE8F8E205
:1017C0000E94081270911E01706470931E010C94A7
:1017D000EC0B86E08093F1010C94F10B85E0809393
:1017E000F1010C94730DE8E9F8E20E94651311F021
:1017F0000C940A0C80E08093F101A8E2B1E0E0EAE9
:10180000F8E20E94081270911E017F7B70931E0106
:101810000C94730DEAEAF8E20E94651311F00C943F
:10182000BD0C00918E02023011F00C94B80CA4EAA9
:10183000B2E00E94CE12A8E1B1E00C930091180131
:10184000033010F00C94B30C80911801809338028F
:1018500080E08093F101A8E2B1E0E2EBF8E20E94BF
:10186000081281E080931C0100911C01003218F0E5
:1018700011F00C94570C80E0ACE1B1E0AD90BB24CA
:10188000ACE3B2E0AA0DBB1D8C9380E0ACE1B1E00B
:10189000AD90BB24ACE5B2E0AA0DBB1D8C93ACE1CE
:1018A000B1E08C918F5F8C9310F40C94340C81E038
:1018B00080931C0100911C01003218F011F00C946F
:1018C000B10CE4E6FBE1ACE1B1E08C919927A8E131
:1018D000B1E00E94231200913802003011F00C9404
:1018E0007C0C80911801ACE1B1E0AD90BB24ACE37D
:1018F000B2E0AA0DBB1D8C9300913802013011F0AB
:101900000C948D0C80911801ACE1B1E0AD90BB243A
:10191000ACE5B2E0AA0DBB1D8C93009138020230F9
:1019200011F00C94A90C80911801ACE1B1E0AD90DC
:10193000BB24ACE3B2E0AA0DBB1D8C9380911801CF
:10194000ACE1B1E0AD90BB24ACE5B2E0AA0DBB1DAB
:101950008C93ACE1B1E08C918F5F8C9310F40C947C
:101960005A0C0C94B60C86E08093F1010C94BB0CDD
:1019700085E08093F1010C94730DEEEBF8E20E9488
:10198000651311F00C94700D00918E02023011F06D
:101990000C946B0DA4EAB2E00E94CE12A8E1B1E073
:1019A0000C9300911801033010F00C94660D809197
:1019B00018018093380280E08093F101A8E2B1E041
:1019C000E2EBF8E20E94081281E080931C01009192
:1019D0001C01003218F011F00C940A0D80E0ACE10B
:1019E000B1E0AD90BB24ACE3B2E0AA0DBB1D8C937B
:1019F00080E0ACE1B1E0AD90BB24ACE5B2E0AA0D73
:101A0000BB1D8C93ACE1B1E08C918F5F8C9310F493
:101A10000C94E70C81E080931C0100911C010032C2
:101A200018F011F00C94640DE6E8FBE1ACE1B1E0D4
:101A30008C919927A8E1B1E00E942312009138020D
:101A4000003011F00C942F0D80911801ACE1B1E041
:101A5000AD90BB24ACE3B2E0AA0DBB1D8C9300910A
:101A60003802013011F00C94400D80911801ACE166
:101A7000B1E0AD90BB24ACE5B2E0AA0DBB1D8C93E8
:101A800000913802023011F00C945C0D8091180125
:101A9000ACE1B1E0AD90BB24ACE3B2E0AA0DBB1D5C
:101AA0008C9380911801ACE1B1E0AD90BB24ACE522
:101AB000B2E0AA0DBB1D8C93ACE1B1E08C918F5FBD
:101AC0008C9310F40C940D0D0C94690D86E08093AA
:101AD000F1010C946E0D85E08093F1010C94730D6F
:101AE00081E08093F1010C94780D82E08093F10104
:101AF000A8E2B1E00E94F00F0E94FD0F0091F101F9
:101B0000003018F011F00C94870D0C94930DE6E55D
:101B1000FDE1A1EFB1E08C9199270E942D12A8E27E
:101B2000B1E00E940812A8E2B1E00E94F00F0E940A
:101B3000FD0FA8E2B1E088278C9308950000010012
:101B40000200040008001000200040008000000196
:101B500000020004000800100020004000800C0C6F
:101B60000906030000000000000000FF2030488448
:101B700000FD00FF007884848478009894A46400B9
:101B80000000000000000000000000FF00FD00FF5A
:101B900084847800FC0804040060949494F800980D
:101BA00094A4640000000000001F20C0201F00FF5C
:101BB00000FF21619E0001FF01007F80807F00FC0B
:101BC000222122FC00FF8080800000000000003CF9
:101BD00042819152340000010608F008060100001D
:101BE000FF0638C03806FF00000000007E818181BA
:101BF0007E8282FF8080C2A1918986428189897616
:101C0000181412FF104F898989717C8A89897001A3
:101C1000C1310D0376898989760E9191513E00007C
:101C2000000000C000000000004689899191620018
:101C30007C808040FC00FF48848478006894945441
:101C4000F80000000000000000000000000000FF9D
:101C50001221211E001E2121211E003F0201010030
:101C600000000000000000000000000004FE050568
:101C70000068949454F8000C30C0300C00788484D0
:101C80007800FC08040400000000003C42819152EE
:101C90003400FC080400689454F8007884844800F8
:101CA000FD00689454F8004894A448000000FF899F
:101CB00089898900FF0919698600FF091969860069
:101CC0003C428181423C00FF091969860000000006
:101CD00000000000000000003C42818181423C0085
:101CE000FF10081C628100000000000000000000DE
:101CF000007F49494900244A4A522400FF12212109
:101D00001E003C4A4A4A2C007E0402003C4A4A4AD1
:101D10002C000000000000000101FF010100689498
:101D20009454F800FC0804040068949454F80000EB
:101D3000000000000000FF11110E0068949454F898
:101D40000004FF8400FC080400788484847800FC8C
:101D5000040404F800004F4B00436F6D616E646F24
:101D6000206E6F207265636F6E6F6369646F004CE5
:101D70006F6E676974756420636F6D616E646F2048
:101D80006E6F2076616C696461004E756D65726F6F
:101D9000206465207573756172696F206E6F20769F
:101DA000616C69646F004E756D65726F20646520AB
:101DB000706172616D6574726F7320696E76616CAB
:101DC00069646F004572726F72206C6F6E67697420
:101DD000756420706172616D6574726F20310045A9
:101DE00072726F72206C6F6E6769747564207061B7
:101DF00072616D6574726F203200506172616D6541
:101E000074726F206E6F2076616C69646F0045524A
:101E1000524F5238004552524F522053442E2049BF
:101E20006E74656E7465206465206E7565766F00EE
:101E30000000000003000000330000003303000036
:101E4000333300003333030033C00C00FF0FFF0FA8
:101E50005555555533333333777777770C00FCFF7F
:101E6000CC00FCFFCC0CFCFFCCCCFCFF0C00FCFF3E
:101E7000F0FFFFFF0E946B03A7E8B2E08C9184FBA8
:101E800016F00C94540F709187027F7E7093870236
:101E9000ECEBF7E20E94F60FA3E2B6E00E94F00F2F
:101EA0000E94FD0F0E94CF09AEE1B1E08C9187FB4B
:101EB00016F00C94910F70911E017F7770931E01A4
:101EC0000E946710EFE0F1E0A3E0B2E00E9430135F
:101ED000A3E0B2E00E94F00F0E94FD0F81E0E3E07A
:101EE000F2E005E00A93A2EFB1E00E943513A8E109
:101EF000B1E08C918F5F8C93A8E1B1E00C9100FB75
:101F000016F00C94890F83E0A2EFB1E070E20E941A
:101F10004513E2EFF1E0A3E0B2E00E9430130E942B
:101F2000A6030C943C0F0D911D912D913C910F5FD8
:101F30001F4F2F4F3F4F3C932E931E930E930895A8
:101F4000ED91FC91EF5FFF4FFC93EE93089509D064
:101F50000E94DB1100FC10D0089503D01ED001F8C0
:101F6000F9CF0024E89457FF02C009D0689400F824
:101F70000BD010F80124089502D009D0089550958F
:101F800040954F5F5F4F0895E89417FF08950095BF
:101F900010950F5F1F4F68940895352F242FE894F4
:101FA000452B11F468940895512F402F00271127D5
:101FB00080E1440F551F001F111F021B130B4160CE
:101FC00018F4020F131F4E7F8A9599F708958F9387
:101FD0008D918823E9F711978F910895A0EEB7E0CE
:101FE0008D91882311F00CD0FBCF08950E940E1222
:101FF000802D11F005D0FACF08958DE001D08AE050
:102000000090C00005FEFCCF8093C600089500FC40
:1020100005D0089530D005D001F8F9CF37D03FD0A2
:102020000895842F952FA62FB72FE894452B462B84
:10203000472B11F468940895402F512F622F732F6E
:102040000027112722273327F0E2440F551F661F70
:10205000771F001F111F221F331F081B190B2A0B8C
:102060003B0B416028F4080F191F2A1F3B1F4E7FAE
:10207000FA9559F708950024E89477FF02C006D036
:10208000689400F809D010F80124089512D04F5F29
:102090005F4F6F4F7F4F0895E89437FF0895009585
:1020A0001095209530950F5F1F4F2F4F3F4F68942D
:1020B0000895409550956095709508953197F1F782
:1020C0000895689462F80895E89462F808950E946B
:1020D0006803A6E0B1E0E3E0F1E00E94BA103397B4
:1020E0000C949610E6E0F1E0A3E0B1E00E94A810A5
:1020F0000C946903EFE0F1E0A0E0B1E00E948410ED
:102100000C946A03ADE0BB27868197810E945C1224
:102110000D93838194810E945C120D938081918143
:102120000E945C120D930895EDE0FF2782810E94CA
:1021300051128AE38D9381810E9451128AE38D931B
:1021400080810E94511288278C930895ADE0BB27AF
:10215000808191810E945C120D93838194810E9401
:102160005C120D93868197810E945C120D930895F5
:10217000EDE0FF2780810E9451128FE28D938181D3
:102180000E9451128FE28D9382810E945112882702
:102190008D93089593E0ADE002C096E0AAE0B0E030
:1021A0008FB7F89401910D939A95E1F78FBF089539
:1021B0000191119145EB55E00E94AD0F440F440F82
:1021C000F42E0F31150728F481E0E82E0395D02E68
:1021D00022C00C33150728F482E0E82E0E51D02ED1
:1021E0001AC00150150B4DE651E00E94CD0FF40EC0
:1021F0007CE07A95872F9927E8E1F2E2A2E1BB27FC
:102200000E941E1202171307A0F37395E72E021BFC
:10221000130B0395D02E089500001F003B005A00B9
:1022200078009700B500D400F300110130014E0191
:10223000019111912191308140E851E561E070E018
:102240000E940A10042F152F0C94DA10A3DF0E2D14
:102250000A95802F0295003220F01F2D137009F48B
:102260000395DA940D0D11279927ECE7F2E2A8E126
:10227000BB270E942312080F111F0895000F1B2A6D
:10228000384755647381909E85DF0F2D11274CE3ED
:1022900055270E94A70F55270E0D151F4CE3222727
:1022A0003327662777270E94E5110D0D131F231F83
:1022B000089570DFDF92EF92FF920F2D11272227F2
:1022C00033274DE651E060E070E00E94E511FF9099
:1022D0004F2D4D5F469546955527662777270E94D7
:1022E0006612EF90DF900F931F932F933F930E94FE
:1022F0002711222733277F916F915F914F910C9483
:1023000066124BDFAF92BF92CF920E945A1140E803
:1023100051E561E070E00E94E511FF90EF90DF90E1
:102320000F931F932F933F930E9445117F916F91BD
:102330005F914F910C94661201911191219130811E
:1023400040E851E561E070E00E940A100C94AC1185
:10235000019111912191308140E15EE060E070E0F7
:102360000E940A10F42E4CE350E00E94AD0FE42EC0
:10237000D02E0895AF93BF930E949C11BF91AF914F
:102380000C949410AF93BF930E941811BF91AF911A
:102390000C94B810AAE0BB270E948410E991F9912F
:1023A0000E94A6100C94821101911191219130810B
:1023B0000895015010400F92B801469F8001479F39
:1023C000100D569F100D0F9008950F921F922F928F
:1023D000C801D901489F80014A9F90014B9F202C42
:1023E000499F100D211D321D5A9F202C589F100D02
:1023F000211D321D599F200D311D689F200D311D5B
:10240000699F300D789F300D2F901F900F90089589
:102410000E940E120D920020D9F70895C8953196AA
:102420000020089591E005C092E003C094E001C04F
:1024300098E0F4DF0D929A95E1F70895880F991FBF
:10244000E80FF91FF1CFE80FF91FECCF880F991FA4
:10245000880F991FE80FF91FE9CF0196019721F026
:102460000E940E12E9F7FACF0895819104D08D935E
:102470008823D9F70895813618F08B3708F48F7DBB
:10248000089591E0882321F08894991F8A95E9F7AF
:10249000892F90950895883018F011968850FBCFB9
:1024A000089500278A3018F08A500395FBCF005D0D
:1024B0000D93805D8D930895805390530027813054
:1024C00018F0065F8A95FBCF090F0895040F151FBA
:1024D000261F371F0895000F111F221F331F089555
:1024E00000951095209530950F5F1F4F2F4F3F4F50
:1024F0000895019110810FC00E94D4110EC00E9456
:10250000D41110C00191108117FF05C03FEF2FEFCC
:1025100004C0008111272227332737FF03C0E0DFE3
:102520008DE28D93CF92DF92EF92AA24BB24CC242C
:10253000DD24EE2440E2EAE0FF2755E093E38081CA
:10254000890F87FD9F7083FD907F891B81935A952A
:10255000A9F7C1DFAA1CBB1CCC1CDD1CEE1C4A95D4
:1025600051F7E894EFE0FF2782910BD0EB30E0F7D2
:102570001EF068948A2D09D04D93EF90DF90CF9094
:102580000895982F829501D0892F8F70805D26F055
:10259000803309F4089568948D93089500271127D6
:1025A000222733271DD08A3328F4803318F005D032
:1025B00015D0F9CF0EF494CF089580538F93402F08
:1025C000512F622F732F87DF86DF80DF84DF8F91AB
:1025D0009927080F191F291F391F08958D910895F4
:1025E000E894FCDF8032E9F38B32D9F38930C9F308
:1025F0008D3211F46894F2CF089541E003C042E0B7
:1026000001C044E0E40F8827F81F8291982F82953B
:1026100006D0892F04D04A95C1F70C942D138F70E2
:102620008A3008F0895F805D8D9308950027112717
:10263000222733278D91882379F04DDF4CDF4BDF44
:102640004ADF19DF815408F4895F865F080F882705
:10265000181F281F381FEECF089588278D930895DF
:1026600081918D938823E1F70895099191919923A0
:1026700059F08A95D9F73197002331F081918D93E4
:102680000A958823C9F70895E8CF803039F0992753
:102690000D91002319F00197D9F77E930895FF93C8
:1026A000881BF9E0001FFA9511F4FF910895881F27
:1026B000841B18F4840F8894F5CF0894F3CF8FEF20
:1026C00083959D919923E1F70895689401C0E8945A
:1026D000AF93BF938D9116F0919103C00E940E129B
:1026E000902D891718F011F48823A1F7BF91AF91AD
:1026F0000895689401C0E8942227102F231709F445
:10270000089526F40E940E12802D01C08191803020
:1027100081F0891741F070E08D931A9591F7239518
:1027200071E01D93EACF01D0E8CF703011F0772728
:102730000895772331F42395882713958D931A955F
:10274000E9F7089530382F30382F32360000323014
:102750003A32383A3030000046696E64656C61790F
:1027600000002A2A2A2A2A2A2A2A2A2A2A2A20440D
:10277000524956455220415544494F202A2A2A2A77
:102780002A2A2A2A2A2A2A2A000030382D30382DCF
:10279000323032362032303A34313A343800302E4A
:1027A000312E3135370052454C4F4A2E42415300AD
:1027B0003A00494E49205445535400005345523184
:1027C0003D004E65777365432C0024004C4545560B
:1027D0004657000056657273696F6E2046573A205F
:1027E0004665636861203C003E2C20417263686945
:1027F000766F203C00003E005345544C4544000099
:10280000536520636F6E66696775726120736574C6
:102810006C6564206120000053455442555200000D
:10282000536520636F6E66696775726120627566B5
:10283000665F52280000293D000053455442554729
:102840000000536520636F6E666967757261206270
:102850007566665F472800004C45454255460000B6
:102860004C65656461746F73206275660000534542
:10287000544345520000456E63657261206275667F
:102880006665727300005345545453540000496EFA
:10289000692054455354000052535454535400007B
:1028A00046696E205445535400005345544B494CDF
:1028B00000005365746561204B696C6F730053456C
:0628C000544C49420000E7
:00000001FF
