:100000000C94340018950000189500001895000015
:10001000189500001895000018950000189500002C
:10002000189500000C94DC0118950000189500004C
:10003000189500001895000018950000189500000C
:100040000C941801189500000C9486001895000077
:1000500018950000189500001895000018950000EC
:1000600018950000189500008FEF8DBFC0EBE8E2F7
:100070004E2E88E08EBFD8E0F8E05F2EA89584B7BA
:10008000082E882784BF88E1992780936000909389
:100090006000EEEFF7E0A0E0B1E088278D933197A4
:1000A000E9F78FE28093C40080E08093C50088E187
:1000B0008093C10066243A9A239A209A219A529AF0
:1000C000539A549A559A569A579A85E085BD80E07E
:1000D00084BD70916E00716070936E0085E085BD87
:1000E00084E08093B10080E08093B0007091700054
:1000F00071607093700084E08093B1007091C100D2
:1001000070687093C10078940C948C110F921F92B8
:100110002F923F924F925F927F92AF92BF920F9336
:100120001F932F933F934F935F936F937F938F937F
:100130009F93AF93BF93CF93DF93EF93FF939FB7BB
:100140009F93A6E0B6E08091C6008C938AE2482F88
:1001500000910606041711F00C94B90070916F021B
:10016000706270936F02ADE3B5E088278C930C94B6
:10017000FB000D3011F00C94E300AFE6B2E08C917F
:1001800085FB16F00C94E10070916F027F7D7093F7
:100190006F0280E0ADE3B5E00E94B0148D93882734
:1001A0008C93EDE3F5E0A7E0B6E00E9412167091A3
:1001B0006F02706170936F0270916E007160709346
:1001C0006E000C94FB000F3118F011F00C94EA0053
:1001D0000C94FB00AFE6B2E08C9185FB16F00C941A
:1001E000FB00A6E0B6E08C91ADE3B5E00E94B01450
:1001F0008D9388278C939F919FBFFF91EF91DF9103
:10020000CF91BF91AF919F918F917F916F915F91AE
:100210004F913F912F911F910F91BF90AF907F9081
:100220005F904F903F902F901F900F9018950895DA
:100230000F921F922F923F924F925F927F92AF92B6
:10024000BF920F931F932F933F934F935F936F939F
:100250007F938F939F93AF93BF93CF93DF93EF934E
:10026000FF939FB79F9378EB76BDA7E6B2E08C91A2
:100270008F5F8C93A7E6B2E00C9148E00E942716AE
:100280008C9300916702003011F00C947801A8E67D
:10029000B2E00C9140E20E9427168C93E4EDF2E26A
:1002A000ADE6B2E08C919927A9E6B2E00E941D1557
:1002B00080916802A9E6B2E00E9442150E943815BA
:1002C0000C900822689409F4E894A6E0B1E08C91BF
:1002D00080F98C93A6E0B1E08C9180FBA8E2B0E0BD
:1002E0008C9182F98C93A8E6B2E08C918F5F8C930D
:1002F000A5E0B1E08C918F5F8C93A5E0B1E00C910B
:1003000042E30E9427168C9300910501003011F002
:100310000C948F0170910601706870930601AFE62E
:10032000B2E08C9187FB16F00C94C001A0E7B2E01C
:100330000E946914A0E7B2E00D911C9140E85CE0D6
:100340000E949614A0E7B2E00D931C93A0E7B2E0E0
:100350000D911C91003050E0150711F00C94C00174
:10036000E4EFFCE20E94BF140E94C61470916F0279
:100370007F7770936F0270916F02706470936F0259
:100380009F919FBFFF91EF91DF91CF91BF91AF916F
:100390009F918F917F916F915F914F913F912F919D
:1003A0001F910F91BF90AF907F905F904F903F90C3
:1003B0002F901F900F9018950F921F922F923F929F
:1003C0004F925F927F92AF92BF920F931F932F93A2
:1003D0003F934F935F936F937F938F939F93AF93CD
:1003E000BF93CF93DF93EF93FF939FB79F9378E8EB
:1003F0007093B20088E083B95B9A5D9A5F9AA4E239
:10040000B2E08C918F5F8C93E0EEFFE1A4E2B2E06A
:100410008C919927A2E2B2E00E941515209A219AA8
:100420002998A2E2B2E0129690E18E91983018F4E9
:10043000392F992702C038E09850881F289808F46F
:10044000289A00000000299A000000002998000066
:1004500000003A9591F7992341F75A9A5A985B9878
:10046000A4E2B2E0AD90BB24A4E2B2E0AA0DBB1DB1
:100470008C9180932102209A219A2998A1E2B2E0DE
:1004800098E08D91983018F4392F992702C038E000
:1004900098508795289808F4289A00000000299A17
:1004A000000000002998000000003A9591F7992378
:1004B00041F7A4E2B2E0AD90BB24A4E4B2E0AA0DFF
:1004C000BB1D8C9180932102209A219A2998A1E248
:1004D000B2E098E08D91983018F4392F992702C036
:1004E00038E098508795289808F4289A0000000072
:1004F000299A000000002998000000003A9591F721
:10050000992341F75E9A5E98A4E2B2E0AD90BB24D5
:10051000A4E3B2E0AA0DBB1D8C9180932102209A26
:10052000219A2998A1E2B2E098E08D91983018F4D0
:10053000392F992702C038E098508795289808F4F9
:10054000289A00000000299A000000002998000065
:1005500000003A9591F7992341F7A4E2B2E0AD90FB
:10056000BB24A4E5B2E0AA0DBB1D8C9180932102AF
:10057000209A219A2998A1E2B2E098E08D919830D2
:1005800018F4392F992702C038E098508795289899
:1005900008F4289A00000000299A00000000299819
:1005A000000000003A9591F7992341F75C9A5C9816
:1005B0005D985F98A4E2B2E00C9140E10E9427169A
:1005C0008C939F919FBFFF91EF91DF91CF91BF914E
:1005D000AF919F918F917F916F915F914F913F91DB
:1005E0002F911F910F91BF90AF907F905F904F9090
:1005F0003F902F901F900F9018954298EEEFFCE2DD
:100600000E94BF140E94C614A0E1B8E0E6E2FDE239
:100610000E94FF140E94B7140E94C614A0E1B8E023
:10062000EAE3FDE20E94FF140E94B7140E94C61480
:10063000A0E1B8E0E2E4FDE20E94FF140E94B714DA
:100640000E94C61481E080936D02709106017F7B49
:100650007093060181E08093200270916F027F7E8B
:1006600070936F02709106017D7F7093060108956B
:10067000ABEEB1E00E943716A0E0B1E08C930091A0
:100680000001053018F011F00C9448030C944B0352
:1006900085E08093000181E08093040100910401D2
:1006A000003218F011F00C94710380E0A4E0B1E086
:1006B000AD90BB24A4E2B2E0AA0DBB1D8C9380E0F8
:1006C000A4E0B1E0AD90BB24A4E4B2E0AA0DBB1D50
:1006D0008C93A4E0B1E08C918F5F8C9310F40C9418
:1006E0004E030091000141E0041BA1E0B1E00C9336
:1006F000E2E0F0E2A1E0B1E08C919927A5E6B2E05A
:100700000E941A15E8E5FDE20E94BF14E5E6F2E05A
:10071000A0E1B8E00E946B150E94B7140E94C614B5
:1007200081E08093030140910001009103010417CF
:1007300018F011F00C94250580910301EBEEF1E027
:1007400001E00A93AAEDB1E00E941716AAEDB1E00C
:10075000EEE5FDE20E943D1611F40C947004AAED42
:10076000B1E00E94B015A1E0B1E00C93009101014D
:1007700045E0049FA6E6B2E00C92E0E6FDE20E94AE
:10078000BF14E6E6F2E0A0E1B8E00E946B150E941B
:10079000B7140E94C61481E0809304010091040103
:1007A000053018F011F00C942F04A5E6B2E08C91FE
:1007B0008F5F8C93E0E9F0E2A6E6B2E08C91992796
:1007C000A2E0B1E00E941A15A6E6B2E08C918F5F1C
:1007D0008C9300912002003011F00C94FA03809168
:1007E0000201A5E6B2E0AD90BB24A4E2B2E0AA0DFE
:1007F000BB1D8C9300912002013011F00C940B046E
:1008000080910201A5E6B2E0AD90BB24A4E4B2E081
:10081000AA0DBB1D8C9300912002023011F00C94A4
:10082000270480910201A5E6B2E0AD90BB24A4E2CA
:10083000B2E0AA0DBB1D8C9380910201A5E6B2E047
:10084000AD90BB24A4E4B2E0AA0DBB1D8C93A4E040
:10085000B1E08C918F5F8C9310F40C94CE03A5E6DD
:10086000B2E08C918F5F8C9300912002003011F0E8
:100870000C94440480E0A5E6B2E0AD90BB24A4E271
:10088000B2E0AA0DBB1D8C9300912002013011F043
:100890000C94540480E0A5E6B2E0AD90BB24A4E43F
:1008A000B2E0AA0DBB1D8C9300912002023011F022
:1008B0000C946E0480E0A5E6B2E0AD90BB24A4E207
:1008C000B2E0AA0DBB1D8C9380E0A5E6B2E0AD902E
:1008D000BB24A4E4B2E0AA0DBB1D8C930C941D05AF
:1008E000A5E6B2E08C918F5F8C93009120020030DE
:1008F00011F00C94A30480ECA5E6B2E0AD90BB240B
:10090000A4E2B2E0AA0DBB1D8C93A5E6B2E08C91E7
:100910008F5F8C9380ECA5E6B2E0AD90BB24A4E29F
:10092000B2E0AA0DBB1D8C93A5E6B2E08C918F5F5F
:100930008C9380E0A5E6B2E0AD90BB24A4E2B2E0E7
:10094000AA0DBB1D8C9300912002013011F00C9474
:10095000D10480ECA5E6B2E0AD90BB24A4E4B2E003
:10096000AA0DBB1D8C93A5E6B2E08C918F5F8C9392
:1009700080ECA5E6B2E0AD90BB24A4E4B2E0AA0D01
:10098000BB1D8C93A5E6B2E08C918F5F8C9380E0C9
:10099000A5E6B2E0AD90BB24A4E4B2E0AA0DBB1D75
:1009A0008C9300912002023011F00C941D0580EC14
:1009B000A5E6B2E0AD90BB24A4E2B2E0AA0DBB1D57
:1009C0008C9380ECA5E6B2E0AD90BB24A4E4B2E049
:1009D000AA0DBB1D8C93A5E6B2E08C918F5F8C9322
:1009E00080ECA5E6B2E0AD90BB24A4E2B2E0AA0D93
:1009F000BB1D8C9380ECA5E6B2E0AD90BB24A4E4D3
:100A0000B2E0AA0DBB1D8C93A5E6B2E08C918F5F7E
:100A10008C9380E0A5E6B2E0AD90BB24A4E2B2E006
:100A2000AA0DBB1D8C9380E0A5E6B2E0AD90BB247F
:100A3000A4E4B2E0AA0DBB1D8C93A3E0B1E08C91BD
:100A40008F5F8C9310F40C949303089581E080934E
:100A5000050181E08093040100910401003218F047
:100A600011F00C944F0580E0A4E0B1E0AD90BB2400
:100A7000A4E2B2E0AA0DBB1D8C9380E0A4E0B1E03B
:100A8000AD90BB24A4E4B2E0AA0DBB1D8C93A4E0FE
:100A9000B1E08C918F5F8C9310F40C942C0581E065
:100AA0008093040100910401003218F011F00C94BD
:100AB0006F0600910701003011F00C946905E8E021
:100AC000F0E2A4E0B1E08C919927A0E0B1E00E94AF
:100AD0001A1500910701013011F00C947905EAE232
:100AE000F0E2A4E0B1E08C919927A0E0B1E00E948F
:100AF0001A1500910701023011F00C948905ECE4FD
:100B0000F0E2A4E0B1E08C919927A0E0B1E00E946E
:100B10001A1500910701033011F00C949905EEE6C7
:100B2000F0E2A4E0B1E08C919927A0E0B1E00E944E
:100B30001A1500910701043011F00C94A905E8EC96
:100B4000F0E2A4E0B1E08C919927A0E0B1E00E942E
:100B50001A1500910701053011F00C94B905EAEE61
:100B6000F0E2A4E0B1E08C919927A0E0B1E00E940E
:100B70001A1500910701063011F00C94C905ECE03C
:100B8000F1E2A4E0B1E08C919927A0E0B1E00E94ED
:100B90001A1500910701073011F00C94D905EEE207
:100BA000F1E2A4E0B1E08C919927A0E0B1E00E94CD
:100BB0001A1500910701083011F00C94E905E0E5E1
:100BC000F1E2A4E0B1E08C919927A0E0B1E00E94AD
:100BD0001A1500910701093011F00C94F905E4E9A8
:100BE000F1E2A4E0B1E08C919927A0E0B1E00E948D
:100BF0001A15009107010A3011F00C940906E2E77A
:100C0000F1E2A4E0B1E08C919927A0E0B1E00E946C
:100C10001A15009107010B3011F00C941906E6EB40
:100C2000F1E2A4E0B1E08C919927A0E0B1E00E944C
:100C30001A15009107010C3011F00C942906E8ED0B
:100C4000F1E2A4E0B1E08C919927A0E0B1E00E942C
:100C50001A1500912002003011F00C943A06809190
:100C60000001A4E0B1E0AD90BB24A4E2B2E0AA0D83
:100C7000BB1D8C9300912002013011F00C944B06A7
:100C800080910001A4E0B1E0AD90BB24A4E4B2E007
:100C9000AA0DBB1D8C9300912002023011F00C9420
:100CA000670680910001A4E0B1E0AD90BB24A4E20E
:100CB000B2E0AA0DBB1D8C9380910001A4E0B1E0CD
:100CC000AD90BB24A4E4B2E0AA0DBB1D8C93A4E0BC
:100CD000B1E08C918F5F8C9310F40C94520581E0FD
:100CE00080930501089581E080930501ABEEB1E0AA
:100CF0000E943716A0E0B1E08C930091000105300E
:100D000018F011F00C9486060C94890685E0809307
:100D1000000181E08093040100910401003218F089
:100D200011F00C94AF0680E0A4E0B1E0AD90BB24DC
:100D3000A4E2B2E0AA0DBB1D8C9380E0A4E0B1E078
:100D4000AD90BB24A4E4B2E0AA0DBB1D8C93A4E03B
:100D5000B1E08C918F5F8C9310F40C948C06009111
:100D6000000141E0041BA1E0B1E00C93E2E0F0E2FD
:100D7000A1E0B1E08C919927A5E6B2E00E941A1596
:100D8000E8E5FDE20E94BF14E5E6F2E0A0E1B8E08C
:100D90000E946B150E94B7140E94C61481E08093D4
:100DA00003014091000100910301041718F011F0B4
:100DB0000C94630880910301EBEEF1E001E00A93EB
:100DC000AAEDB1E00E941716AAEDB1E0EEE5FDE252
:100DD0000E943D1611F40C94AE07AAEDB1E00E94FA
:100DE000B015A1E0B1E00C930091010145E0049F32
:100DF000A6E6B2E00C92E0E6FDE20E94BF14E6E651
:100E0000F2E0A0E1B8E00E946B150E94B7140E94C6
:100E1000C61481E08093040100910401053018F0AC
:100E200011F00C946D07A5E6B2E08C918F5F8C9366
:100E3000E0E9F0E2A6E6B2E08C919927A2E0B1E009
:100E40000E941A15A6E6B2E08C918F5F8C930091F8
:100E50002002003011F00C94380780910201A5E6C1
:100E6000B2E0AD90BB24A4E2B2E0AA0DBB1D8C930E
:100E700000912002013011F00C9449078091020189
:100E8000A5E6B2E0AD90BB24A4E4B2E0AA0DBB1D80
:100E90008C9300912002023011F00C946507809130
:100EA0000201A5E6B2E0AD90BB24A4E2B2E0AA0D37
:100EB000BB1D8C9380910201A5E6B2E0AD90BB24EE
:100EC000A4E4B2E0AA0DBB1D8C93A4E0B1E08C9128
:100ED0008F5F8C9310F40C940C07A5E6B2E08C9114
:100EE0008F5F8C9300912002003011F00C948207E8
:100EF00080E0A5E6B2E0AD90BB24A4E2B2E0AA0D8A
:100F0000BB1D8C9300912002013011F00C949207CC
:100F100080E0A5E6B2E0AD90BB24A4E4B2E0AA0D67
:100F2000BB1D8C9300912002023011F00C94AC0791
:100F300080E0A5E6B2E0AD90BB24A4E2B2E0AA0D49
:100F4000BB1D8C9380E0A5E6B2E0AD90BB24A4E489
:100F5000B2E0AA0DBB1D8C930C945B08A5E6B2E031
:100F60008C918F5F8C9300912002003011F00C94D3
:100F7000E10780ECA5E6B2E0AD90BB24A4E2B2E0CC
:100F8000AA0DBB1D8C93A5E6B2E08C918F5F8C936C
:100F900080ECA5E6B2E0AD90BB24A4E2B2E0AA0DDD
:100FA000BB1D8C93A5E6B2E08C918F5F8C9380E0A3
:100FB000A5E6B2E0AD90BB24A4E2B2E0AA0DBB1D51
:100FC0008C9300912002013011F00C940F0880ECFA
:100FD000A5E6B2E0AD90BB24A4E4B2E0AA0DBB1D2F
:100FE0008C93A5E6B2E08C918F5F8C9380ECA5E6A4
:100FF000B2E0AD90BB24A4E4B2E0AA0DBB1D8C937B
:10100000A5E6B2E08C918F5F8C9380E0A5E6B2E01C
:10101000AD90BB24A4E4B2E0AA0DBB1D8C9300915B
:101020002002023011F00C945B0880ECA5E6B2E0DF
:10103000AD90BB24A4E2B2E0AA0DBB1D8C9380EC62
:10104000A5E6B2E0AD90BB24A4E4B2E0AA0DBB1DBE
:101050008C93A5E6B2E08C918F5F8C9380ECA5E633
:10106000B2E0AD90BB24A4E2B2E0AA0DBB1D8C930C
:1010700080ECA5E6B2E0AD90BB24A4E4B2E0AA0DFA
:10108000BB1D8C93A5E6B2E08C918F5F8C9380E0C2
:10109000A5E6B2E0AD90BB24A4E2B2E0AA0DBB1D70
:1010A0008C9380E0A5E6B2E0AD90BB24A4E4B2E06E
:1010B000AA0DBB1D8C93A3E0B1E08C918F5F8C9344
:1010C00010F40C94D1060895E8E6FDE20E94BF14E6
:1010D0000E94C61481E08093040100910401003253
:1010E00018F011F00C94900880E0A4E0B1E0AD900D
:1010F000BB24A4E2B2E0AA0DBB1D8C9380E0A4E067
:10110000B1E0AD90BB24A4E4B2E0AA0DBB1D8C936A
:10111000A4E0B1E08C918F5F8C9310F40C946D0877
:10112000AFE6B2E08C9184FB16F00C94A8087091A5
:101130006F027F7E70936F02E2E7FDE20E94BF14B0
:10114000A7E0B6E00E94B9140E94C6140E94990953
:10115000A6E0B1E08C9187FB16F00C949109709198
:1011600006017F7770930601A4E0B1E08C918F5F58
:101170008C93E8E7FDE20E94BF14E4E0F1E0A0E117
:10118000B8E00E946B150E94B7140E94C61481E05B
:101190008093030100910301003218F011F00C94C8
:1011A000F50800912002013011F00C94E30880E072
:1011B000A3E0B1E0AD90BB24A4E4B2E0AA0DBB1D56
:1011C0008C930C94ED0880E0A3E0B1E0AD90BB24DB
:1011D000A4E2B2E0AA0DBB1D8C93A3E0B1E08C9118
:1011E0008F5F8C9310F40C94CA0881E08093030104
:1011F00000910301003218F011F00C942B0940917A
:10120000040100910301041711F00C9423090091CB
:101210002002013011F00C9419098FEFA3E0B1E026
:10122000AD90BB24A4E4B2E0AA0DBB1D8C930C943A
:1012300023098FEFA3E0B1E0AD90BB24A4E2B2E0BC
:10124000AA0DBB1D8C93A3E0B1E08C918F5F8C93B2
:1012500010F40C94F80800910401003218F011F019
:101260000C9434090C948A090091040148E00E940E
:101270002716A0E0B1E08C93E0E0F1E0A0E1B8E057
:101280000E946B150E94B7140E94C61481E08093DF
:10129000030100910301003218F011F00C948A0947
:1012A00000912002013011F00C946D096894809136
:1012B0000001A3E0B1E0AD90BB24A4E4B2E0AA0D2C
:1012C000BB1D0E9442150E9438150C9016F0092291
:1012D00001C0082A0C920C94820968948091000144
:1012E000A3E0B1E0AD90BB24A4E2B2E0AA0DBB1D27
:1012F0000E9442150E9438150C9016F0092201C078
:10130000082A0C92A3E0B1E08C918F5F8C9310F4CB
:101310000C944909A4E0B1E00C9140E30E94271627
:101320008C93A6E0B1E08C9186FB16F40C949008A7
:101330000895E0E8FDE20E94BF14A7E0B6E00E9435
:10134000B9140E94C61481E0E7E0F6E006E00A93D3
:10135000ABEEB1E00E941716E7E0F6E09CE204E194
:1013600032E2A3E7B2E00E945316A2E7B2E02C9368
:1013700000917202003018F011F00C94C1090C9425
:10138000F10981E080930001409172020091000117
:10139000041718F011F00C94F109E0E0F1E0A0E17D
:1013A000B8E00E946B150E94B714E2E8FDE20E94CB
:1013B000BF14A0E0B1E00D91112745E150E00E947B
:1013C000F514AEE5B2E0A00FB11F0E94B9140E945F
:1013D000C614A0E0B1E08C918F5F8C9310F40C9454
:1013E000C409A7E0B6E088278C93A3E7B2E00E9487
:1013F0003716082F063011F00C94C70FE3E7F2E020
:10140000A9E0B1E00E941216E9E0F1E0A9E0B1E044
:101410000E942C158FEF8093D901A9E0B1E0E4E898
:10142000FDE20E943D1611F00C944D0A80E080937D
:10143000D901A0E1B1E0ECE8FDE20E94FF14ABEEBF
:10144000B1E0E6E2FDE20E94FF14EBEEF1E0A0E184
:10145000B1E00E94B0140E941216A0E1B1E00E9417
:10146000B014E0EAFDE20E94FF14ABEEB1E0E2E46A
:10147000FDE20E94FF14EBEEF1E0A0E1B1E00E947A
:10148000B0140E941216A0E1B1E00E94B014EEEA7E
:10149000FDE20E94FF140C94C50FE0EBFDE20E94F8
:1014A0003D1611F00C94880A00917202023011F07E
:1014B0000C94830AA8E8B2E00E94B015A0E0B1E065
:1014C0000C9300910001013110F00C947E0A80E031
:1014D0008093D901A0E1B1E0E8EBFDE20E94FF14A6
:1014E000E0E0F1E0A0E1B1E00E94B0140E946B15D1
:1014F0008091000180936D020C94810A85E08093B5
:10150000D9010C94860A84E08093D9010C94C50F0C
:10151000E0EDFDE20E943D1611F00C94E10A00910D
:101520007202033011F00C94DC0AA8E8B2E00E94C9
:10153000B015A0E0B1E00C9300910001013210F071
:101540000C94D70A80E08093D901ADE9B2E00E9403
:10155000F815A1E0B1E00C93A0E1B1E0E8EDFDE207
:101560000E94FF14E0E0F1E0A0E1B1E00E94B014BD
:101570000E946B15A0E1B1E00E94B014EEEEFDE216
:101580000E94FF14E1E0F1E0A0E1B1E00E94B0149C
:101590000E94DF1580910101A0E0B1E0AD90BB2475
:1015A000A4E2B2E0AA0DBB1D8C930C94DA0A85E08C
:1015B0008093D9010C94DF0A84E08093D9010C94C4
:1015C000C50FE2EFFDE20E943D1611F00C943A0BBC
:1015D00000917202033011F00C94350BA8E8B2E0D0
:1015E0000E94B015A0E0B1E00C930091000101321F
:1015F00010F00C94300B80E08093D901ADE9B2E09B
:101600000E94F815A1E0B1E00C93A0E1B1E0EAEF8F
:10161000FDE20E94FF14E0E0F1E0A0E1B1E00E94F1
:10162000B0140E946B15A0E1B1E00E94B014EEEE80
:10163000FDE20E94FF14E1E0F1E0A0E1B1E00E94D0
:10164000B0140E94DF1580910101A0E0B1E0AD90DF
:10165000BB24A4E4B2E0AA0DBB1D8C930C94330B05
:1016600085E08093D9010C94380B84E08093D901F4
:101670000C94C50FE0E1FEE20E943D1611F00C94BF
:10168000510B80E08093D901A0E1B1E0E8E1FEE2F6
:101690000E94FF14709106017061709306010C9412
:1016A000C50FE6E2FEE20E943D1611F00C949B0B82
:1016B00000917202033011F00C94960B80E080933D
:1016C000D901E8E8F2E0ABEEB1E00E941216ADE914
:1016D000B2E00E94B015A0E2B2E00C9300912002AB
:1016E000033010F00C94910BA0E1B1E0EEE2FEE2C9
:1016F0000E94FF14EBEEF1E0A0E1B1E00E94B01413
:101700000E941216A0E1B1E00E94B014EEEAFDE2E0
:101710000E94FF14709106017460709306010C948E
:10172000940B86E08093D9010C94990B85E080930B
:10173000D9010C94C50FEEE3FEE20E943D1611F0B4
:101740000C94070C00917202043011F00C94020CFE
:1017500080E08093D901E8E8F2E0ABEEB1E00E94CE
:101760001216ADE9B2E00E94B015A0E2B2E00C930F
:1017700000912002033010F00C94FD0BA2EBB2E0BC
:101780000E94B015A7E0B1E00C9300910701023070
:1017900010F00C94F80BA0E1B1E0EEE2FEE20E9442
:1017A000FF14EBEEF1E0A0E1B1E00E94B0140E9462
:1017B0001216A0E1B1E00E94B014EEEAFDE20E9430
:1017C000FF1470910601777F7093060170916F028C
:1017D0007F7770936F0280E090E0A0E7B2E08D9396
:1017E0009C93709106017062709306010C94FB0B40
:1017F00084E08093D9010C94000C86E08093D90199
:101800000C94050C85E08093D9010C94C50FE6E497
:10181000FEE20E943D1611F00C946B0C00917202D6
:10182000023011F00C94660C80E08093D901A8E896
:10183000B2E00E94B015A0E2B2E00C930091200249
:10184000033010F00C94610C70910601777F709357
:10185000060170916F027F7770936F0280E090E0D5
:10186000A0E7B2E08D939C9384E0809307010E94EF
:101870002605E1E0F0E00E94D01485E080930701A6
:101880000E942605E1E0F0E00E94D01486E08093FB
:1018900007010E942605E1E0F0E00E94D01470915B
:1018A000060178607093060180E090E0A0E7B2E066
:1018B0008D939C9370916F02706870936F020C947B
:1018C000640C84E08093D9010C94690C86E08093C9
:1018D000D9010C94C50FEEE4FEE20E943D1611F012
:1018E0000C94AD0C00917202023011F00C94A80C13
:1018F00080E08093D901A8E8B2E00E94B015A0E290
:10190000B2E00C9300912002033010F00C94A30C71
:1019100070910601777F7093060170916F027F7757
:1019200070936F0280E090E0A0E7B2E08D939C930B
:1019300088E0809307010E942605E1E0F0E00E9424
:10194000D0140C94A60C84E08093D9010C94AB0CB9
:1019500086E08093D9010C94C50FE6E5FEE20E9473
:101960003D1611F00C94F80C00917202023011F047
:101970000C94F30C80E08093D901A8E8B2E00E94B7
:10198000B015A0E2B2E00C9300912002033010F0F9
:101990000C94EE0C70910601777F709306017091A4
:1019A0006F027F7770936F0280E090E0A0E7B2E073
:1019B0008D939C938BE0809307010E942605E1E0C4
:1019C000F0E00E94D0148AE0809307010E9426056F
:1019D000E1E0F0E00E94D0140C94F10C84E08093DC
:1019E000D9010C94F60C86E08093D9010C94C50FB4
:1019F000EEE5FEE20E943D1611F00C94430D0091BD
:101A00007202023011F00C943E0D80E08093D901F7
:101A1000A8E8B2E00E94B015A0E2B2E00C930091F9
:101A20002002033010F00C94390D70910601777F7D
:101A30007093060170916F027F7770936F0280E060
:101A400090E0A0E7B2E08D939C938BE08093070138
:101A50000E942605E1E0F0E00E94D01488E0809327
:101A600007010E942605E1E0F0E00E94D0140C94EA
:101A70003C0D84E08093D9010C94410D86E0809365
:101A8000D9010C94C50FE6E6FEE20E943D1611F066
:101A90000C948E0D00917202023011F00C94890D9D
:101AA00080E08093D901A8E8B2E00E94B015A0E2DE
:101AB000B2E00C9300912002033010F00C94840DDE
:101AC00070910601777F7093060170916F027F77A6
:101AD00070936F0280E090E0A0E7B2E08D939C935A
:101AE0008CE0809307010E942605E1E0F0E00E946F
:101AF000D0148AE0809307010E942605E1E0F0E01F
:101B00000E94D0140C94870D84E08093D9010C942A
:101B10008C0D86E08093D9010C94C50FEEE6FEE2B1
:101B20000E943D1611F00C94D90D00917202023002
:101B300011F00C94D40D80E08093D901A8E8B2E0B4
:101B40000E94B015A0E2B2E00C9300912002033095
:101B500010F00C94CF0D70910601777F7093060101
:101B600070916F027F7770936F0280E090E0A0E742
:101B7000B2E08D939C938CE0809307010E94260530
:101B8000E1E0F0E00E94D01488E0809307010E9419
:101B90002605E1E0F0E00E94D0140C94D20D84E020
:101BA0008093D9010C94D70D86E08093D9010C94D1
:101BB000C50FE6E7FEE20E943D1611F00C94110EEF
:101BC00080E08093D901A0E1B1E0EEE7FEE20E945F
:101BD000FF1481E08093040100910401003218F0A9
:101BE00011F00C940F0E80E0A4E0B1E0AD90BB24A6
:101BF000A4E2B2E0AA0DBB1D8C9380E0A4E0B1E0AA
:101C0000AD90BB24A4E4B2E0AA0DBB1D8C93A4E06C
:101C1000B1E08C918F5F8C9310F40C94EC0D0C94CC
:101C2000C50FEEE8FEE20E943D1611F00C94450E41
:101C300000917202023011F00C94400EA8E8B2E05C
:101C40000E94B015A0E2B2E00C9300912002023095
:101C500010F00C943B0E80E08093D901A0E1B1E03C
:101C6000E6E9FEE20E94FF14709106017064709331
:101C700006010C943E0E86E08093D9010C94430E2D
:101C800085E08093D9010C94C50FE0EAFEE20E9442
:101C90003D1611F00C945C0E80E08093D901A0E118
:101CA000B1E0E8EAFEE20E94FF14709106017F7B3A
:101CB000709306010C94C50FE2EBFEE20E943D1604
:101CC00011F00C940F0F00917202023011F00C947D
:101CD0000A0FA8E8B2E00E94B015A0E0B1E00C93B2
:101CE00000910001033010F00C94050F8091000169
:101CF0008093200280E08093D901A0E1B1E0EAEB7B
:101D0000FEE20E94FF1481E080930401009104012F
:101D1000003218F011F00C94A90E80E0A4E0B1E0BC
:101D2000AD90BB24A4E2B2E0AA0DBB1D8C9380E071
:101D3000A4E0B1E0AD90BB24A4E4B2E0AA0DBB1DC9
:101D40008C93A4E0B1E08C918F5F8C9310F40C9491
:101D5000860E81E08093040100910401003218F0A6
:101D600011F00C94030FE8E0F0E2A4E0B1E08C91F4
:101D70009927A0E0B1E00E941A15009120020030DE
:101D800011F00C94CE0E80910001A4E0B1E0AD9072
:101D9000BB24A4E2B2E0AA0DBB1D8C9300912002EB
:101DA000013011F00C94DF0E80910001A4E0B1E04D
:101DB000AD90BB24A4E4B2E0AA0DBB1D8C930091AE
:101DC0002002023011F00C94FB0E80910001A4E07F
:101DD000B1E0AD90BB24A4E2B2E0AA0DBB1D8C9390
:101DE00080910001A4E0B1E0AD90BB24A4E4B2E096
:101DF000AA0DBB1D8C93A4E0B1E08C918F5F8C93F6
:101E000010F40C94AC0E0C94080F86E08093D9016A
:101E10000C940D0F85E08093D9010C94C50FE6EC6E
:101E2000FEE20E943D1611F00C94C20F0091720266
:101E3000023011F00C94BD0FA8E8B2E00E94B0157A
:101E4000A0E0B1E00C9300910001033010F00C947D
:101E5000B80F809100018093200280E08093D90127
:101E6000A0E1B1E0EAEBFEE20E94FF1481E0809382
:101E7000040100910401003218F011F00C945C0F81
:101E800080E0A4E0B1E0AD90BB24A4E2B2E0AA0DF2
:101E9000BB1D8C9380E0A4E0B1E0AD90BB24A4E432
:101EA000B2E0AA0DBB1D8C93A4E0B1E08C918F5FD2
:101EB0008C9310F40C94390F81E08093040100910D
:101EC0000401003218F011F00C94B60FEAE2F0E2CF
:101ED000A4E0B1E08C919927A0E0B1E00E941A152E
:101EE00000912002003011F00C94810F80910001CC
:101EF000A4E0B1E0AD90BB24A4E2B2E0AA0DBB1D0A
:101F00008C9300912002013011F00C94920F80917B
:101F10000001A4E0B1E0AD90BB24A4E4B2E0AA0DBE
:101F2000BB1D8C9300912002023011F00C94AE0F77
:101F300080910001A4E0B1E0AD90BB24A4E2B2E046
:101F4000AA0DBB1D8C9380910001A4E0B1E0AD907F
:101F5000BB24A4E4B2E0AA0DBB1D8C93A4E0B1E0C5
:101F60008C918F5F8C9310F40C945F0F0C94BB0FCB
:101F700086E08093D9010C94C00F85E08093D9014D
:101F80000C94C50F81E08093D9010C94CA0F82E0B4
:101F90008093D901A0E1B1E00E94B9140E94C61457
:101FA0000091D901003018F011F00C94D90F0C9465
:101FB000E50FEAEFF1E2A9EDB1E08C9199270E94DB
:101FC0002415A0E1B1E00E94FF14A0E1B1E00E945D
:101FD000B9140E94C614A0E1B1E088278C9308953B
:101FE0000000010002000400080010002000400072
:101FF00080000001000200040008001000200040E2
:1020000000800C0C0906030000000000000000FF27
:102010002030488400FD00FF007884848478009894
:1020200094A464000000000000000000000000FF15
:1020300000FD00FF84847800FC0804040060949490
:1020400094F8009894A4640000000000001F20C0D1
:10205000201F00FF00FF21619E0001FF01007F8023
:10206000807F00FC222122FC00FF80808000000095
:102070000000003C42819152340000010608F00843
:1020800006010000FF0638C03806FF00000000000F
:102090007E8181817E8282FF8080C2A19189864279
:1020A00081898976181412FF104F898989717C8A79
:1020B00089897001C1310D0376898989760E9191E4
:1020C000513E0000000000C0000000000046898969
:1020D000919162007C808040FC00FF4884847800FD
:1020E00068949454F8000000000000000000000014
:1020F000000000FF1221211E001E2121211E003F91
:1021000002010100000000000000000000000000CB
:1021100004FE05050068949454F8000C30C0300C9F
:10212000007884847800FC08040400000000003C6F
:10213000428191523400FC080400689454F80078FD
:1021400084844800FD00689454F8004894A4480032
:102150000000FF8989898900FF0919698600FF0944
:10216000196986003C428181423C00FF0919698659
:102170000000000000000000000000003C428181DF
:1021800081423C00FF10081C62810000000000003A
:1021900000000000007F49494900244A4A522400B7
:1021A000FF1221211E003C4A4A4A2C007E040200F4
:1021B0003C4A4A4A2C000000000000000101FF01D7
:1021C000010068949454F800FC0804040068949496
:1021D00054F80000000000000000FF11110E00681C
:1021E000949454F80004FF8400FC0804007884846C
:1021F000847800FC040404F800004F4B00436F6D2A
:10220000616E646F206E6F207265636F6E6F6369BD
:10221000646F004C6F6E676974756420636F6D61E5
:102220006E646F206E6F2076616C696461004E751C
:102230006D65726F206465207573756172696F20BA
:102240006E6F2076616C69646F004E756D65726F9C
:1022500020646520706172616D6574726F732069AE
:102260006E76616C69646F004572726F72206C6F7C
:102270006E676974756420706172616D6574726FE8
:102280002031004572726F72206C6F6E67697475D1
:102290006420706172616D6574726F2032005061EC
:1022A00072616D6574726F206E6F2076616C696407
:1022B0006F004552524F5238004552524F522053F0
:1022C000442E20496E74656E7465206465206E75B9
:1022D00065766F000000000003000000330000007E
:1022E00033030000333300003333030033C00C00EA
:1022F000FF0FFF0F555555553333333377777777C6
:102300000C00FCFFCC00FCFFCC0CFCFFCCCCFCFF99
:102310000C00FCFFF0FFFFFF0E94FD02AFE6B2E001
:102320008C9184FB16F00C94A61170916F027F7E45
:1023300070936F02E2E7FDE20E94BF14A7E0B6E0EF
:102340000E94B9140E94C6140E949909A6E0B1E047
:102350008C9184FB16F00C940E12709106017F7E16
:102360007093060181E0809300010091000100322A
:1023700018F011F00C940E12EEECFEE20E94BF1465
:10238000E0E0F1E0A0E1B8E00E946B150E94B71414
:10239000EEEEFDE20E94BF14A0E0B1E0AD90BB24E0
:1023A000A4E2B2E0AA0DBB1D0E94F815E0E1F0E046
:1023B000A0E1B8E00E945E150E94B714E6EDFEE2CF
:1023C0000E94BF14EAEDFEE20E94BF14E0E0F1E0DB
:1023D000A0E1B8E00E946B150E94B714EEEEFDE29A
:1023E0000E94BF14A0E0B1E0AD90BB24A4E4B2E031
:1023F000AA0DBB1D0E94F815E0E1F0E0A0E1B8E0F5
:102400000E945E150E94B7140E94C614A0E0B1E0BD
:102410008C918F5F8C9310F40C94B511A6E0B1E011
:102420008C9182FB16F00C941C12709106017B7F3C
:10243000709306010E947306A6E0B1E08C9185FBC3
:1024400016F00C945912709106017F7D709306016D
:10245000709106017260709306010E947306E1E0BC
:10246000F0E00E94D0140E942605E1E0F0E00E9416
:10247000D0140E947306E1E0F0E00E94D0140E94A4
:102480002605E1E0F0E00E94D01400910701013040
:1024900011F00C945912709106017D7F7093060122
:1024A00087E0809307010E942605E2E0F0E00E94A9
:1024B000D014A6E0B1E08C9186FB16F00C94941336
:1024C000E8E6FDE20E94BF140E94C61481E08093FA
:1024D000040100910401003218F011F00C948C12E8
:1024E00080E0A4E0B1E0AD90BB24A4E2B2E0AA0D8C
:1024F000BB1D8C9380E0A4E0B1E0AD90BB24A4E4CC
:10250000B2E0AA0DBB1D8C93A4E0B1E08C918F5F6B
:102510008C9310F40C946912AFE6B2E08C9184FBBA
:1025200016F00C94A41270916F027F7E70936F026C
:10253000E2E7FDE20E94BF14A7E0B6E00E94B914F2
:102540000E94C6140E949909A6E0B1E08C9187FB15
:1025500016F00C948D13709106017F77709306012D
:10256000A4E0B1E08C918F5F8C93E8E7FDE20E94DC
:10257000BF14E4E0F1E0A0E1B8E00E946B150E9416
:10258000B7140E94C61481E08093030100910301F7
:10259000003218F011F00C94F11200912002013079
:1025A00011F00C94DF1280E0A3E0B1E0AD90BB2409
:1025B000A4E4B2E0AA0DBB1D8C930C94E91280E058
:1025C000A3E0B1E0AD90BB24A4E2B2E0AA0DBB1D34
:1025D0008C93A3E0B1E08C918F5F8C9310F40C94FA
:1025E000C61281E08093030100910301003218F0CC
:1025F00011F00C942713409104010091030104177A
:1026000011F00C941F1300912002013011F00C9472
:1026100015138FEFA3E0B1E0AD90BB24A4E4B2E0CA
:10262000AA0DBB1D8C930C941F138FEFA3E0B1E098
:10263000AD90BB24A4E2B2E0AA0DBB1D8C93A3E035
:10264000B1E08C918F5F8C9310F40C94F412009194
:102650000401003218F011F00C9430130C9486131E
:102660000091040148E00E942716A0E0B1E08C939D
:10267000E0E0F1E0A0E1B8E00E946B150E94B71421
:102680000E94C61481E0809303010091030100328F
:1026900018F011F00C94861300912002013011F013
:1026A0000C946913689480910001A3E0B1E0AD90AF
:1026B000BB24A4E4B2E0AA0DBB1D0E9442150E94F7
:1026C00038150C9016F0092201C0082A0C920C94BF
:1026D0007E13689480910001A3E0B1E0AD90BB242B
:1026E000A4E2B2E0AA0DBB1D0E9442150E9438155B
:1026F0000C9016F0092201C0082A0C92A3E0B1E068
:102700008C918F5F8C9310F40C944513A4E0B1E08E
:102710000C9140E30E9427168C93A6E0B1E08C91C7
:1027200086FB16F40C948C12A6E0B1E08C9187FB2A
:1027300081E00EF080E08F93A6E0B1E08C9181FB08
:1027400081E00EF480E09F918923882311F40C949A
:102750004E14709106017F7770930601A8E0B1E0F6
:102760008C918F5F8C93A6E0B1E08C9183FB16F087
:102770000C94FF1300910801013011F00C94D31355
:1027800089E080930701A0E2B2E08C918F5F8C9387
:10279000A0E2B2E00C9142E00E9427168C930E94C6
:1027A00026050C94FD13063011F00C94FD1381E006
:1027B0008093040100910401003218F011F00C9490
:1027C000FD1380E0A4E0B1E0AD90BB24A4E2B2E050
:1027D000AA0DBB1D8C9380E0A4E0B1E0AD90BB24BA
:1027E000A4E4B2E0AA0DBB1D8C93A4E0B1E08C91EF
:1027F0008F5F8C9310F40C94DA130C9447140091AF
:102800000801013011F00C940F1482E0809307014D
:1028100081E0809320020E9426050C944714043026
:1028200011F00C941D1483E08093070180E08093E5
:1028300020020E9426050C944714063011F00C94D7
:10284000471481E08093040100910401003218F0E4
:1028500011F00C94471480E0A4E0B1E0AD90BB24EB
:10286000A4E2B2E0AA0DBB1D8C9380E0A4E0B1E02D
:10287000AD90BB24A4E4B2E0AA0DBB1D8C93A4E0F0
:10288000B1E08C918F5F8C9310F40C942414A8E029
:10289000B1E00C914CE00E9427168C93AFE6B2E0B9
:1028A0008C9186FB16F00C94671470916F027F7BFD
:1028B00070936F0270910601777F7093060188E034
:1028C0008093070180E0809320020E9426050C94EB
:1028D0008E11ED91FC91EF5FFF4FFC93EE93089505
:1028E00009D00E94F51400FC10D0089503D01ED02A
:1028F00001F8F9CF0024E89457FF02C009D068948A
:1029000000F80BD010F80124089502D009D00895E2
:10291000509540954F5F5F4F0895E89417FF0895D5
:10292000009510950F5F1F4F68940895352F242F41
:10293000E894452B11F468940895512F402F0027F7
:10294000112780E1440F551F001F111F021B130B9D
:10295000416018F4020F131F4E7F8A9599F708956E
:102960008F938D918823E9F711978F910895A0E1B6
:10297000B8E08D91882311F00CD0FBCF08950E9410
:102980000515802D11F005D0FACF08958DE001D006
:102990008AE00090C00005FEFCCF8093C600089539
:1029A00088EE93E00CD03197D9F708953197F1F77D
:1029B0000895689462F80895E89462F80895EF9392
:1029C000FF93EE27E82BE92B31F0E3E3F7E03197B3
:1029D000F1F70197D1F7FF91EF91089501911191CE
:1029E000219130810895015010400F92B801469F07
:1029F0008001479F100D569F100D0F9008950E9463
:102A000005150D920020D9F70895C895319600203C
:102A1000089591E005C092E003C094E001C098E001
:102A2000F4DF0D929A95E1F70895880F991FE80F4A
:102A3000F91FF1CFE80FF91FECCF880F991F880F0E
:102A4000991FE80FF91FE9CF0196019721F00E9425
:102A50000515E9F7FACF0895819104D08D93882365
:102A6000D9F70895813618F08B3708F48F7D0895D3
:102A700091E0882321F08894991F8A95E9F7892F9E
:102A800090950895883018F011968850FBCF0895DE
:102A9000040F151F261F371F0895000F111F221F37
:102AA000331F089500951095209530950F5F1F4FA7
:102AB0002F4F3F4F0895019110810FC00E94EE14D7
:102AC0000EC00E94EE1410C00191108117FF05C0C6
:102AD0003FEF2FEF04C0008111272227332737FF54
:102AE00003C0E0DF8DE28D93CF92DF92EF92AA24B4
:102AF000BB24CC24DD24EE2440E2EAE0FF2755E0AD
:102B000093E38081890F87FD9F7083FD907F891BF0
:102B100081935A95A9F7C1DFAA1CBB1CCC1CDD1CF4
:102B2000EE1C4A9551F7E894EFE0FF2782910BD015
:102B3000EB30E0F71EF068948A2D09D04D93EF90AA
:102B4000DF90CF900895982F829501D0892F8F70B4
:102B5000805D26F0803309F4089568948D9308957C
:102B600000271127222733271DD08A3328F48033EA
:102B700018F005D015D0F9CF0EF494CF08958053F6
:102B80008F93402F512F622F732F87DF86DF80DFD7
:102B900084DF8F919927080F191F291F391F089566
:102BA0008D910895E894FCDF8032E9F38B32D9F3FC
:102BB0008930C9F38D3211F46894F2CF089541E061
:102BC00003C042E001C044E0E40F8827F81F82916F
:102BD000982F829506D0892F04D04A95C1F70C947E
:102BE0000F168F708A3008F0895F805D8D9308958D
:102BF00000271127222733278D91882379F04DDF75
:102C00004CDF4BDF4ADF2EDF815408F4895F865F9B
:102C1000080F8827181F281F381FEECF0895882710
:102C20008D93089581918D938823E1F708950991FB
:102C30009191992359F08A95D9F73197002331F072
:102C400081918D930A958823C9F70895E8CFFF9362
:102C5000881BF9E0001FFA9511F4FF910895881F71
:102C6000841B18F4840F8894F5CF0894F3CF8FEF6A
:102C700083959D919923E1F70895689401C0E894A4
:102C8000AF93BF938D9116F0919103C00E940515EB
:102C9000902D891718F011F48823A1F7BF91AF91F7
:102CA0000895689401C0E8942227102F231709F48F
:102CB000089526F40E940515802D01C08191803071
:102CC00081F0891741F070E08D931A9591F7239563
:102CD00071E01D93EACF01D0E8CF703011F0772773
:102CE0000895772331F42395882713958D931A95AA
:102CF000E9F7089546696E64656C617900002A2AD7
:102D00002A2A2A2A2A2A2A2A2A2A20445249564585
:102D10005220415544494F202A2A2A2A2A2A2A2A5F
:102D20002A2A2A2A000030352D30322D3230323610
:102D30002032323A32333A343000302E312E3133B1
:102D40003700444953504C4159534143415F4D4131
:102D5000494E2E42415300005054524D3D002E002A
:102D60005074726469673D00494E4920544553547C
:102D70000000534552313D004E65777365672C0066
:102D800024003A004C45455646570000566572737C
:102D9000696F6E2046573A204665636861203C00A3
:102DA0003E2C204172636869766F203C00003E0033
:102DB0005345544C45440000536520636F6E66696B
:102DC00067757261207365746C6564206120000012
:102DD0005345544255520000536520636F6E666937
:102DE0006775726120627566665F52280000293D32
:102DF00000005345544255470000536520636F6EF1
:102E000066696775726120627566665F47280000B3
:102E10004C454542554600004C65656461746F73CE
:102E200020627566000053455456414C00005365BE
:102E30007465617220746578746F203C000053459E
:102E4000545045530000494E4950455300004552E7
:102E5000525045530000544152414F4B00005441E1
:102E60005241455200005054524E4F4B00005054B6
:102E7000524E455200005345544345520000456EA2
:102E80006365726120627566666572730000534502
:102E9000545453540000496E692054455354000063
:102EA000525354545354000046696E2054455354B1
:102EB00000005345544B494C000053657465612034
:102EC0004B696C6F73005345544C494200004255A6
:102ED000465F52280000203B20004255465F4728AD
:022EE0000000F0
:00000001FF
